{
  "_format": "hh-sol-artifact-1",
  "contractName": "voter",
  "sourceName": "contracts/voter.sol",
  "abi": [
    {
      "inputs": [
        {
          "internalType": "string[]",
          "name": "_candidateNames",
          "type": "string[]"
        },
        {
          "internalType": "uint256",
          "name": "_durationInMinutes",
          "type": "uint256"
        }
      ],
      "stateMutability": "nonpayable",
      "type": "constructor"
    },
    {
      "inputs": [
        {
          "internalType": "string",
          "name": "_name",
          "type": "string"
        }
      ],
      "name": "addCandidate",
      "outputs": [],
      "stateMutability": "nonpayable",
      "type": "function"
    },
    {
      "inputs": [
        {
          "internalType": "uint256",
          "name": "",
          "type": "uint256"
        }
      ],
      "name": "candidates",
      "outputs": [
        {
          "internalType": "string",
          "name": "name",
          "type": "string"
        },
        {
          "internalType": "uint256",
          "name": "voteCount",
          "type": "uint256"
        }
      ],
      "stateMutability": "view",
      "type": "function"
    },
    {
      "inputs": [],
      "name": "getAllVotesOfCandidates",
      "outputs": [
        {
          "components": [
            {
              "internalType": "string",
              "name": "name",
              "type": "string"
            },
            {
              "internalType": "uint256",
              "name": "voteCount",
              "type": "uint256"
            }
          ],
          "internalType": "struct voter.Candidate[]",
          "name": "",
          "type": "tuple[]"
        }
      ],
      "stateMutability": "view",
      "type": "function"
    },
    {
      "inputs": [],
      "name": "getRemainingTime",
      "outputs": [
        {
          "internalType": "uint256",
          "name": "",
          "type": "uint256"
        }
      ],
      "stateMutability": "view",
      "type": "function"
    },
    {
      "inputs": [],
      "name": "getVotingStatus",
      "outputs": [
        {
          "internalType": "bool",
          "name": "",
          "type": "bool"
        }
      ],
      "stateMutability": "view",
      "type": "function"
    },
    {
      "inputs": [
        {
          "internalType": "address",
          "name": "voterAddress",
          "type": "address"
        }
      ],
      "name": "hasVoted",
      "outputs": [
        {
          "internalType": "bool",
          "name": "",
          "type": "bool"
        }
      ],
      "stateMutability": "view",
      "type": "function"
    },
    {
      "inputs": [],
      "name": "isOwner",
      "outputs": [
        {
          "internalType": "bool",
          "name": "",
          "type": "bool"
        }
      ],
      "stateMutability": "view",
      "type": "function"
    },
    {
      "inputs": [
        {
          "internalType": "uint256",
          "name": "_candidateIndex",
          "type": "uint256"
        }
      ],
      "name": "removeCandidate",
      "outputs": [],
      "stateMutability": "nonpayable",
      "type": "function"
    },
    {
      "inputs": [
        {
          "internalType": "uint256",
          "name": "_candidateIndex",
          "type": "uint256"
        }
      ],
      "name": "vote",
      "outputs": [],
      "stateMutability": "nonpayable",
      "type": "function"
    },
    {
      "inputs": [
        {
          "internalType": "address",
          "name": "",
          "type": "address"
        }
      ],
      "name": "voters",
      "outputs": [
        {
          "internalType": "bool",
          "name": "",
          "type": "bool"
        }
      ],
      "stateMutability": "view",
      "type": "function"
    },
    {
      "inputs": [],
      "name": "votingEnd",
      "outputs": [
        {
          "internalType": "uint256",
          "name": "",
          "type": "uint256"
        }
      ],
      "stateMutability": "view",
      "type": "function"
    },
    {
      "inputs": [],
      "name": "votingStart",
      "outputs": [
        {
          "internalType": "uint256",
          "name": "",
          "type": "uint256"
        }
      ],
      "stateMutability": "view",
      "type": "function"
    }
  ],
  "bytecode": "0x60806040523480156200001157600080fd5b50604051620020633803806200206383398181016040528101906200003791906200041d565b6000600190505b8251811015620000e057600060405180604001604052808584815181106200006b576200006a62000483565b5b60200260200101518152602001600081525090806001815401808255809150506001900390600052602060002090600202016000909190919091506000820151816000019081620000bd9190620006f3565b506020820151816001015550508080620000d79062000809565b9150506200003e565b5033600160006101000a81548173ffffffffffffffffffffffffffffffffffffffff021916908373ffffffffffffffffffffffffffffffffffffffff16021790555042600381905550603c8162000138919062000856565b42620001459190620008a1565b6004819055505050620008dc565b6000604051905090565b600080fd5b600080fd5b600080fd5b6000601f19601f8301169050919050565b7f4e487b7100000000000000000000000000000000000000000000000000000000600052604160045260246000fd5b620001b7826200016c565b810181811067ffffffffffffffff82111715620001d957620001d86200017d565b5b80604052505050565b6000620001ee62000153565b9050620001fc8282620001ac565b919050565b600067ffffffffffffffff8211156200021f576200021e6200017d565b5b602082029050602081019050919050565b600080fd5b600080fd5b600067ffffffffffffffff8211156200025857620002576200017d565b5b62000263826200016c565b9050602081019050919050565b60005b838110156200029057808201518184015260208101905062000273565b60008484015250505050565b6000620002b3620002ad846200023a565b620001e2565b905082815260208101848484011115620002d257620002d162000235565b5b620002df84828562000270565b509392505050565b600082601f830112620002ff57620002fe62000167565b5b8151620003118482602086016200029c565b91505092915050565b6000620003316200032b8462000201565b620001e2565b9050808382526020820190506020840283018581111562000357576200035662000230565b5b835b81811015620003a557805167ffffffffffffffff81111562000380576200037f62000167565b5b8086016200038f8982620002e7565b8552602085019450505060208101905062000359565b5050509392505050565b600082601f830112620003c757620003c662000167565b5b8151620003d98482602086016200031a565b91505092915050565b6000819050919050565b620003f781620003e2565b81146200040357600080fd5b50565b6000815190506200041781620003ec565b92915050565b600080604083850312156200043757620004366200015d565b5b600083015167ffffffffffffffff81111562000458576200045762000162565b5b6200046685828601620003af565b9250506020620004798582860162000406565b9150509250929050565b7f4e487b7100000000000000000000000000000000000000000000000000000000600052603260045260246000fd5b600081519050919050565b7f4e487b7100000000000000000000000000000000000000000000000000000000600052602260045260246000fd5b600060028204905060018216806200050557607f821691505b6020821081036200051b576200051a620004bd565b5b50919050565b60008190508160005260206000209050919050565b60006020601f8301049050919050565b600082821b905092915050565b600060088302620005857fffffffffffffffffffffffffffffffffffffffffffffffffffffffffffffffff8262000546565b62000591868362000546565b95508019841693508086168417925050509392505050565b6000819050919050565b6000620005d4620005ce620005c884620003e2565b620005a9565b620003e2565b9050919050565b6000819050919050565b620005f083620005b3565b62000608620005ff82620005db565b84845462000553565b825550505050565b600090565b6200061f62000610565b6200062c818484620005e5565b505050565b5b8181101562000654576200064860008262000615565b60018101905062000632565b5050565b601f821115620006a3576200066d8162000521565b620006788462000536565b8101602085101562000688578190505b620006a0620006978562000536565b83018262000631565b50505b505050565b600082821c905092915050565b6000620006c860001984600802620006a8565b1980831691505092915050565b6000620006e38383620006b5565b9150826002028217905092915050565b620006fe82620004b2565b67ffffffffffffffff8111156200071a57620007196200017d565b5b620007268254620004ec565b6200073382828562000658565b600060209050601f8311600181146200076b576000841562000756578287015190505b620007628582620006d5565b865550620007d2565b601f1984166200077b8662000521565b60005b82811015620007a5578489015182556001820191506020850194506020810190506200077e565b86831015620007c55784890151620007c1601f891682620006b5565b8355505b6001600288020188555050505b505050505050565b7f4e487b7100000000000000000000000000000000000000000000000000000000600052601160045260246000fd5b60006200081682620003e2565b91507fffffffffffffffffffffffffffffffffffffffffffffffffffffffffffffffff82036200084b576200084a620007da565b5b600182019050919050565b60006200086382620003e2565b91506200087083620003e2565b92508282026200088081620003e2565b915082820484148315176200089a5762000899620007da565b5b5092915050565b6000620008ae82620003e2565b9150620008bb83620003e2565b9250828201905080821115620008d657620008d5620007da565b5b92915050565b61177780620008ec6000396000f3fe608060405234801561001057600080fd5b50600436106100b45760003560e01c8063581c281c11610071578063581c281c1461018c57806385a38635146101aa5780638f32d59b146101c857806390a9ab90146101e6578063a3ec138d14610204578063efb98bcf14610234576100b4565b80630121b93f146100b957806309e9d7e2146100d557806309eef43e146100f1578063101158af146101215780633477ee2e1461013f578063462e91ec14610170575b600080fd5b6100d360048036038101906100ce9190610b16565b610252565b005b6100ef60048036038101906100ea9190610b16565b61040f565b005b61010b60048036038101906101069190610ba1565b6105d1565b6040516101189190610be9565b60405180910390f35b610129610627565b6040516101369190610c13565b60405180910390f35b61015960048036038101906101549190610b16565b61062d565b604051610167929190610cbe565b60405180910390f35b61018a60048036038101906101859190610e23565b6106e9565b005b61019461086f565b6040516101a19190610be9565b60405180910390f35b6101b2610889565b6040516101bf9190610c13565b60405180910390f35b6101d061088f565b6040516101dd9190610be9565b60405180910390f35b6101ee6108e7565b6040516101fb9190610fc4565b60405180910390f35b61021e60048036038101906102199190610ba1565b6109e2565b60405161022b9190610be9565b60405180910390f35b61023c610a02565b6040516102499190610c13565b60405180910390f35b600354421015801561026657506004544211155b6102a5576040517f08c379a000000000000000000000000000000000000000000000000000000000815260040161029c90611032565b60405180910390fd5b600260003373ffffffffffffffffffffffffffffffffffffffff1673ffffffffffffffffffffffffffffffffffffffff16815260200190815260200160002060009054906101000a900460ff1615610332576040517f08c379a00000000000000000000000000000000000000000000000000000000081526004016103299061109e565b60405180910390fd5b6000805490508110610379576040517f08c379a00000000000000000000000000000000000000000000000000000000081526004016103709061110a565b60405180910390fd5b6000818154811061038d5761038c61112a565b5b906000526020600020906002020160010160008154809291906103af90611188565b91905055506001600260003373ffffffffffffffffffffffffffffffffffffffff1673ffffffffffffffffffffffffffffffffffffffff16815260200190815260200160002060006101000a81548160ff02191690831515021790555050565b600160009054906101000a900473ffffffffffffffffffffffffffffffffffffffff1673ffffffffffffffffffffffffffffffffffffffff163373ffffffffffffffffffffffffffffffffffffffff161461049f576040517f08c379a000000000000000000000000000000000000000000000000000000000815260040161049690611242565b60405180910390fd5b60008054905081106104e6576040517f08c379a00000000000000000000000000000000000000000000000000000000081526004016104dd9061110a565b60405180910390fd5b60008190505b60016000805490506104fe9190611262565b81101561058a5760006001826105149190611296565b815481106105255761052461112a565b5b9060005260206000209060020201600082815481106105475761054661112a565b5b90600052602060002090600202016000820181600001908161056991906114ec565b5060018201548160010155905050808061058290611188565b9150506104ec565b50600080548061059d5761059c6115d4565b5b6001900381819060005260206000209060020201600080820160006105c29190610a6f565b60018201600090555050905550565b6000600260008373ffffffffffffffffffffffffffffffffffffffff1673ffffffffffffffffffffffffffffffffffffffff16815260200190815260200160002060009054906101000a900460ff169050919050565b60035481565b6000818154811061063d57600080fd5b9060005260206000209060020201600091509050806000018054610660906112f9565b80601f016020809104026020016040519081016040528092919081815260200182805461068c906112f9565b80156106d95780601f106106ae576101008083540402835291602001916106d9565b820191906000526020600020905b8154815290600101906020018083116106bc57829003601f168201915b5050505050908060010154905082565b600160009054906101000a900473ffffffffffffffffffffffffffffffffffffffff1673ffffffffffffffffffffffffffffffffffffffff163373ffffffffffffffffffffffffffffffffffffffff1614610779576040517f08c379a000000000000000000000000000000000000000000000000000000000815260040161077090611242565b60405180910390fd5b600160009054906101000a900473ffffffffffffffffffffffffffffffffffffffff1673ffffffffffffffffffffffffffffffffffffffff163373ffffffffffffffffffffffffffffffffffffffff1614610809576040517f08c379a000000000000000000000000000000000000000000000000000000000815260040161080090611242565b60405180910390fd5b6000604051806040016040528083815260200160008152509080600181540180825580915050600190039060005260206000209060020201600090919091909150600082015181600001908161085f9190611603565b5060208201518160010155505050565b60006003544210158015610884575060045442105b905090565b60045481565b6000600160009054906101000a900473ffffffffffffffffffffffffffffffffffffffff1673ffffffffffffffffffffffffffffffffffffffff163373ffffffffffffffffffffffffffffffffffffffff1614905090565b60606000805480602002602001604051908101604052809291908181526020016000905b828210156109d9578382906000526020600020906002020160405180604001604052908160008201805461093e906112f9565b80601f016020809104026020016040519081016040528092919081815260200182805461096a906112f9565b80156109b75780601f1061098c576101008083540402835291602001916109b7565b820191906000526020600020905b81548152906001019060200180831161099a57829003601f168201915b505050505081526020016001820154815250508152602001906001019061090b565b50505050905090565b60026020528060005260406000206000915054906101000a900460ff1681565b6000600354421015610a49576040517f08c379a0000000000000000000000000000000000000000000000000000000008152600401610a4090611721565b60405180910390fd5b6004544210610a5b5760009050610a6c565b42600454610a699190611262565b90505b90565b508054610a7b906112f9565b6000825580601f10610a8d5750610aac565b601f016020900490600052602060002090810190610aab9190610aaf565b5b50565b5b80821115610ac8576000816000905550600101610ab0565b5090565b6000604051905090565b600080fd5b600080fd5b6000819050919050565b610af381610ae0565b8114610afe57600080fd5b50565b600081359050610b1081610aea565b92915050565b600060208284031215610b2c57610b2b610ad6565b5b6000610b3a84828501610b01565b91505092915050565b600073ffffffffffffffffffffffffffffffffffffffff82169050919050565b6000610b6e82610b43565b9050919050565b610b7e81610b63565b8114610b8957600080fd5b50565b600081359050610b9b81610b75565b92915050565b600060208284031215610bb757610bb6610ad6565b5b6000610bc584828501610b8c565b91505092915050565b60008115159050919050565b610be381610bce565b82525050565b6000602082019050610bfe6000830184610bda565b92915050565b610c0d81610ae0565b82525050565b6000602082019050610c286000830184610c04565b92915050565b600081519050919050565b600082825260208201905092915050565b60005b83811015610c68578082015181840152602081019050610c4d565b60008484015250505050565b6000601f19601f8301169050919050565b6000610c9082610c2e565b610c9a8185610c39565b9350610caa818560208601610c4a565b610cb381610c74565b840191505092915050565b60006040820190508181036000830152610cd88185610c85565b9050610ce76020830184610c04565b9392505050565b600080fd5b600080fd5b7f4e487b7100000000000000000000000000000000000000000000000000000000600052604160045260246000fd5b610d3082610c74565b810181811067ffffffffffffffff82111715610d4f57610d4e610cf8565b5b80604052505050565b6000610d62610acc565b9050610d6e8282610d27565b919050565b600067ffffffffffffffff821115610d8e57610d8d610cf8565b5b610d9782610c74565b9050602081019050919050565b82818337600083830152505050565b6000610dc6610dc184610d73565b610d58565b905082815260208101848484011115610de257610de1610cf3565b5b610ded848285610da4565b509392505050565b600082601f830112610e0a57610e09610cee565b5b8135610e1a848260208601610db3565b91505092915050565b600060208284031215610e3957610e38610ad6565b5b600082013567ffffffffffffffff811115610e5757610e56610adb565b5b610e6384828501610df5565b91505092915050565b600081519050919050565b600082825260208201905092915050565b6000819050602082019050919050565b600082825260208201905092915050565b6000610eb482610c2e565b610ebe8185610e98565b9350610ece818560208601610c4a565b610ed781610c74565b840191505092915050565b610eeb81610ae0565b82525050565b60006040830160008301518482036000860152610f0e8282610ea9565b9150506020830151610f236020860182610ee2565b508091505092915050565b6000610f3a8383610ef1565b905092915050565b6000602082019050919050565b6000610f5a82610e6c565b610f648185610e77565b935083602082028501610f7685610e88565b8060005b85811015610fb25784840389528151610f938582610f2e565b9450610f9e83610f42565b925060208a01995050600181019050610f7a565b50829750879550505050505092915050565b60006020820190508181036000830152610fde8184610f4f565b905092915050565b7f566f74696e6720706572696f64206973206f7665720000000000000000000000600082015250565b600061101c601583610c39565b915061102782610fe6565b602082019050919050565b6000602082019050818103600083015261104b8161100f565b9050919050565b7f596f75206861766520616c726561647920766f7465642e000000000000000000600082015250565b6000611088601783610c39565b915061109382611052565b602082019050919050565b600060208201905081810360008301526110b78161107b565b9050919050565b7f496e76616c69642063616e64696461746520696e6465782e0000000000000000600082015250565b60006110f4601883610c39565b91506110ff826110be565b602082019050919050565b60006020820190508181036000830152611123816110e7565b9050919050565b7f4e487b7100000000000000000000000000000000000000000000000000000000600052603260045260246000fd5b7f4e487b7100000000000000000000000000000000000000000000000000000000600052601160045260246000fd5b600061119382610ae0565b91507fffffffffffffffffffffffffffffffffffffffffffffffffffffffffffffffff82036111c5576111c4611159565b5b600182019050919050565b7f4f6e6c7920746865206f776e65722063616e2063616c6c20746869732066756e60008201527f6374696f6e000000000000000000000000000000000000000000000000000000602082015250565b600061122c602583610c39565b9150611237826111d0565b604082019050919050565b6000602082019050818103600083015261125b8161121f565b9050919050565b600061126d82610ae0565b915061127883610ae0565b92508282039050818111156112905761128f611159565b5b92915050565b60006112a182610ae0565b91506112ac83610ae0565b92508282019050808211156112c4576112c3611159565b5b92915050565b7f4e487b7100000000000000000000000000000000000000000000000000000000600052602260045260246000fd5b6000600282049050600182168061131157607f821691505b602082108103611324576113236112ca565b5b50919050565b600081549050611339816112f9565b9050919050565b60008190508160005260206000209050919050565b60006020601f8301049050919050565b600082821b905092915050565b6000600883026113a27fffffffffffffffffffffffffffffffffffffffffffffffffffffffffffffffff82611365565b6113ac8683611365565b95508019841693508086168417925050509392505050565b6000819050919050565b60006113e96113e46113df84610ae0565b6113c4565b610ae0565b9050919050565b6000819050919050565b611403836113ce565b61141761140f826113f0565b848454611372565b825550505050565b600090565b61142c61141f565b6114378184846113fa565b505050565b5b8181101561145b57611450600082611424565b60018101905061143d565b5050565b601f8211156114a05761147181611340565b61147a84611355565b81016020851015611489578190505b61149d61149585611355565b83018261143c565b50505b505050565b600082821c905092915050565b60006114c3600019846008026114a5565b1980831691505092915050565b60006114dc83836114b2565b9150826002028217905092915050565b8181036114fa5750506115d2565b6115038261132a565b67ffffffffffffffff81111561151c5761151b610cf8565b5b61152682546112f9565b61153182828561145f565b6000601f831160018114611560576000841561154e578287015490505b61155885826114d0565b8655506115cb565b601f19841661156e87611340565b965061157986611340565b60005b828110156115a15784890154825560018201915060018501945060208101905061157c565b868310156115be57848901546115ba601f8916826114b2565b8355505b6001600288020188555050505b5050505050505b565b7f4e487b7100000000000000000000000000000000000000000000000000000000600052603160045260246000fd5b61160c82610c2e565b67ffffffffffffffff81111561162557611624610cf8565b5b61162f82546112f9565b61163a82828561145f565b600060209050601f83116001811461166d576000841561165b578287015190505b61166585826114d0565b8655506116cd565b601f19841661167b86611340565b60005b828110156116a35784890151825560018201915060208501945060208101905061167e565b868310156116c057848901516116bc601f8916826114b2565b8355505b6001600288020188555050505b505050505050565b7f566f74696e6720686173206e6f742073746172746564207965742e0000000000600082015250565b600061170b601b83610c39565b9150611716826116d5565b602082019050919050565b6000602082019050818103600083015261173a816116fe565b905091905056fea264697066735822122032e13537056f9de7968a0acec61b876912d01f6060c4bce12a8a289ddb0ea05464736f6c63430008130033",
  "linkReferences": {},
  "deployedLinkReferences": {}
}